:020000040000FA
:10000000A8020010690100006D0100006F010000EE
:100010007101000073010000750100000000000084
:100020000000000000000000000000007701000058
:1000300079010000000000007B0100007D0100004C
:100040007F010000810900007F0100007F010000A6
:100050007F0100007F0100007F0100007F010000A0
:100060007F0100007F0100007F0100007F01000090
:100070007F0100007F0100007F0100007F01000080
:100080007F0100007F0100007F0100007F01000070
:100090007F0100007F0100007F0100007F01000060
:1000A0007F0100007F0100007F0100007F01000050
:1000B0007F0100007F0100007F0100007F01000040
:1000C0007F01000000F002F800F041F80AA090E87B
:1000D000000C82448344AAF10107DA4501D100F003
:1000E00036F8AFF2090EBAE80F0013F0010F18BF8F
:1000F000FB1A43F001031847780C0000980C00002D
:10010000103A24BF78C878C1FAD8520724BF30C843
:1001100030C144BF04680C60704700000023002415
:1001200000250026103A28BF78C1FBD8520728BF07
:1001300030C148BF0B607047642900F07B8000200D
:1001400070471FB5AFF300801FBD10B510BD00F0A4
:100150002EFD1146FFF7F5FF00F0BBFA00F04CFD55
:10016000FFF7F3FF00F052FD08480047FEE7FEE707
:10017000FEE7FEE7FEE7FEE7FEE7FEE7FEE7FEE757
:1001800003480449024A044B70470000C5000000C0
:10019000A8000010A8020010A80000100FB4084921
:1001A0001CB506AB6A4679440090059800F083F8C8
:1001B0000020694600F092F81CBC5DF814FB0000BA
:1001C000330100002DE9F04104460E4600202BE0EB
:1001D000E1682046884748B3252802D0D4E90121A8
:1001E0001FE0E16820460027884705001ED0A5F1E2
:1001F0004100192802D820354FF4006732462946BD
:1002000020462760FFF798FF40B1012801D1361D35
:10021000DEE7F61D26F007060836D9E7D4E9012106
:1002200028469047206A401C2062D1E7206ABDE83A
:10023000F08100002DE9F041804600261068752904
:10024000414614A511D0AFF30080002802DA4042E5
:1002500011A508E0D8F800108A0701D50FA502E023
:10026000490704D50EA5012601E0AFF30080002464
:1002700008F1240704E000F036F830313955641CE9
:100280000028F8D133462A4621464046BDE8F041D1
:1002900000F036BC000000002D0000002B00000024
:1002A00020000000704770477047000001694A1C39
:1002B00002610878704710B50C46194690B0CDE938
:1002C000024200220692044A7A44CDE9042001A8A1
:1002D000FFF778FF10B010BDE1FFFFFF0A6802F8DA
:1002E000010B0A6070474FF00A01B0FBF1F202FB0C
:1002F000110110467047704700000000FFFFFFFF2C
:1003000010B5002109E00022002301E0521C5B1C13
:1003100041F27074A342F9D3491C8142F3D310BD5A
:1003200010B504464FF4FF00FE49C861E003886140
:100330004FF48060C861400088610A20FFF7E0FF49
:100340004FF40060F749C86110BD10B504464FF482
:10035000FF00F449C861E00388614FF48060886160
:10036000400088610A20FFF7CBFF4FF40060ED49A1
:10037000C86110BD10B5044603E02078FFF7E5FF23
:10038000641C20780028F8D110BD00B5E54800684D
:1003900040F4FF00E34908600846006840F48060CC
:1003A00008600846006840F4006008603820FFF7E5
:1003B000B7FF0E20FFF7B4FF0120FFF7B1FF00BD2C
:1003C00030B5B7B00546DC22D749684600F026FBB9
:1003D00028780A2802D1012037B030BD002408E077
:1003E0005DF82410284600F04BFB08B90120F3E724
:1003F000641C372CF4D30020EEE7CC48006830B101
:10040000C848806B40F4C010C649886305E0C54801
:10041000C06B40F4C010C349C863C448406830B1E1
:10042000C048806B40F4C000BE49886305E0BD4809
:10043000C06B40F4C000BB49C863BC48806830B1A1
:10044000B848806B40F0C070B649886305E0B54895
:10045000C06B40F0C070B349C863B448C06830B1E5
:10046000B048806B40F0C060AE49886305E0AD489D
:10047000C06B40F0C060AB49C863704770B585B0D1
:10048000ABA000680490A849DC3168464EC94EC054
:10049000A448806B40F08050A24988632FE000247C
:1004A0002BE0A048C06D40F0F0009E49C8650846AA
:1004B000806D04A9095D40EA01109A4988650846E3
:1004C000406D00F00F06002505E004A8405DB04235
:1004D00000D102E06D1C042DF7D300BF0F2E0BD00E
:1004E0009048C06B40F080508E49C863684600EB6E
:1004F0008400405D05B070BD641C042CD1D3CEE7F0
:1005000010B500241CE08748C06B40F0FF608549AF
:10051000C8630846806B40F0006088630520FFF7E1
:10052000EFFE8048806B40F0FF607E49886308469C
:10053000C06B40F00060C8630320FFF7E1FE641C5D
:100540000E2CE0DB7748806B40F0006075498863D3
:100550001420FFF7D5FE7348C06B40F0006071496E
:10056000C8630846C06B40F0FF60C8630520FFF712
:10057000C7FE10BD70B50120FFF7D2FE6DA0FFF7DA
:10058000F9FEC020FFF7CCFE6EA0FFF7F3FE4FF49C
:10059000C870FFF7B5FE0120FFF7C2FE6EA0FFF79F
:1005A000E9FEC020FFF7BCFEFFF768FF0546002408
:1005B00015E06C48055500210246601C1154284680
:1005C000FFF7C3FE1420FFF79BFE1020FFF7A8FEE5
:1005D0002A20FFF7BAFE641CFFF750FF0546462DA0
:1005E00004D0452D02D0601C0A28E2DB5D48FFF7ED
:1005F000E7FE78B90120FFF793FE5BA0FFF7BAFE94
:10060000C020FFF78DFE5748FFF7B4FE6420FFF7C8
:1006100077FE13E00020534908700120FFF780FEA9
:1006200056A0FFF7A7FEC020FFF77AFE57A0FFF7FE
:10063000A1FE9620FFF764FEFFF79CFF70BD00B59A
:100640000120FFF76DFE0C20FFF76AFE53A0FFF7B5
:1006500091FEC020FFF764FE54A0FFF78BFEC82078
:10066000FFF74EFE00BD10B5012000F094F900BF69
:100670000120002805DAC00051496FF002028854B9
:1006800004E00120C0004F490122885400BF00BF90
:1006900001208040012149094FF0E02202EB810155
:1006A000C1F8000100BF10BD4748006840F00200DB
:1006B0004549C439C1F8C40003204FF04021C86047
:1006C0004248886103204861022048600120486058
:1006D00070477CB50020234908703D490870F02020
:1006E000104908640846006C20F00F0008640846B2
:1006F000006A40F0FF6008620846006A40F08050DF
:1007000008620846006A40F000600862FFF73DFE9C
:10071000FFF7CAFFFFF7A7FFFFF791FFFFF72AFFD9
:100720002DE1000000C00920200C00000C0000108A
:100730000E0D0B07536574204F776E65722773207B
:1007400050696E0020284D61782E203130206E7562
:100750006D73292000000000456E74657220506999
:100760006E3A00001C0000105365747570205375BC
:10077000636365737366756C00000000596F757272
:100780002050617373776F726400000020697320DA
:100790006E6F74205374726F6E67210041757468B8
:1007A000656E7469636174696F6E0000202D466F19
:1007B0007220496E6475737472696573000000007D
:1007C00018ED00E000E400E0C4C00F40C0E1E40028
:1007D0002800001000247448006800287BD173486A
:1007E0000068032831DB0120FFF79AFD70A0FFF7B6
:1007F000C1FDC020FFF794FD71A0FFF7BBFD0A20EB
:10080000714908600DE0704870A102687048FFF7F8
:10081000C5FC6F48FFF7AEFDFFF772FE1020FFF733
:100820007FFD6948006868490968491E664A116089
:100830000028E8D16748C06B40F000606549C86394
:100840005A480068401E594908600120FFF768FDBA
:10085000AFF2FC00FFF78EFDC020FFF761FDFFF750
:100860000DFE0446002526E0452C0ED10120FFF7A1
:1008700057FDAFF21C10FFF77DFDC020FFF750FDC4
:10088000002500205449485512E0534844550021A2
:100890000246681C11542046FFF757FD1420FFF74D
:1008A0002FFD1020FFF73CFD2A20FFF74EFD6D1CA9
:1008B000FFF7E4FD0446462C02D0681C0A28D3DB6F
:1008C0004649454800F0DCF830B900203749086057
:1008D0000120354908600DE00120FFF721FD40A00F
:1008E000FFF748FD31480068401C3049086064202B
:1008F000FFF706FD2C480068002840D00120FFF7D4
:100900000FFD3BA0FFF736FDC020FFF709FD3C4877
:10091000C3688268CDE9002343683AA102682C4885
:10092000FFF73CFC2A48FFF725FDFFF766FDFFF7C0
:10093000A5FD0446302C06D13148006880F0010046
:100940002F49086019E0312C06D12D48406880F00D
:1009500001002B49486010E0322C06D128488068FD
:1009600080F001002649886007E0332C05D1244837
:10097000C06880F001002249C860FFF73EFD29E70A
:1009800010B500200849086001204FF040210860A0
:1009900000F001F810BD00F01F0101228A401E493D
:1009A000430941F8232070470000001004000010A4
:1009B0004D616E7920617474656D7074732E0000E2
:1009C000576169743A200000080000102564000097
:1009D0003400001000C00920280000101C00001086
:1009E000496E636F72726563742050494E00000057
:1009F00043423120434232204D5431204D54320085
:100A00000C000010202564202020256420202025B3
:100A1000642020202564000080E200E010B5203A28
:100A2000C0F00B80B1E81850203AA0E81850B1E8A7
:100A30001850A0E81850BFF4F5AF5FEA027C24BF5D
:100A4000B1E81850A0E8185044BF18C918C0BDE854
:100A500010405FEA827C24BF51F8043B40F8043B1D
:100A600008BF7047D20728BF31F8023B48BF11F8D2
:100A7000012B28BF20F8023B48BF00F8012B70472C
:100A80004FF0013C50F8042B51F8043B9A4221D11D
:100A9000A2EB0C03934313EACC1317D150F8042BA9
:100AA00051F8043B9A4215D1A2EB0C03934313EA8D
:100AB000CC130BD150F8042B51F8043B9A4209D1C6
:100AC000A2EB0C03934313EACC13DBD04FF00000EE
:100AD00070470000D01A01BAB1FA81F101F0180193
:100AE00022FA01F0CB40C1F12001DBB2C0B2C01A42
:100AF0002CFA01F3D11A914311EAC311E6D17047E0
:100B00002DE9F0470D4604469246994600F1240827
:100B10000168880604D5E06921F01001216000E039
:100B200001200027A84200DD471BA1697A1902EBCA
:100B30000900081AA0612068C00602D42046AFF35D
:100B40000080002608E0D4E901211AF80600904749
:100B5000206A401C761C20624E45F4DB2068C006EB
:100B60000AD52046AFF3008006E0D4E90121302009
:100B70009047206A401C2062381EA7F10107F4DC70
:100B800007E0D4E9012118F805009047206A401CCD
:100B90002062281EA5F10105F3DC2046AFF300809A
:100BA00021680220090600D40120BDE8F0877546BF
:100BB00000F028F8AE4605006946534620F00700CD
:100BC000854618B020B5FFF7DBFABDE820404FF0AE
:100BD00000064FF000074FF000084FF0000B21F027
:100BE0000701AC46ACE8C009ACE8C009ACE8C009F4
:100BF000ACE8C0098D4670470446AFF3008020463C
:100C0000FFF7AEFA004870474800001003494FF064
:100C10001800ABBE70470000DFF6FFFF26000200A1
:100C2000140D0000210D0000290D0000360D0000FC
:100C3000430D00004B0D0000530D00005B0D000044
:100C4000630D00006B0D00006C0D0000130D000023
:100C5000160D0000230D00002B0D0000380D0000C4
:100C6000450D00004D0D0000550D00005D0D00000C
:100C7000650D00001B0D0000280D0000350D000063
:100C8000420D00004A0D0000520D00005A0D0000F8
:100C9000620D00006A0D0000120D00000C0D000036
:100CA0001A0D0000270D0000340D0000410D00005A
:100CB000490D0000510D0000590D0000610D0000AC
:100CC000690D00002E0D0000110D00003B0D00000D
:100CD0001E0D0000680D0000190D0000260D00001B
:100CE000330D0000400D0000480D0000500D0000C5
:100CF000580D0000600D0000680D000030313233E7
:100D00003435363738394142434445463030303047
:100D10000031303030003031003131313100343386
:100D20003231003032003232323200303300303172
:100D30003233003333333300303400313233340054
:100D40003434343400303500353535350030360034
:100D50003636363600303700373737370030380010
:100D60003838383800303900393939390000000056
:100D7000900D0000000000100C00000000010000B9
:100D80009C0D00000C0000109C0200001C010000E3
:0C0D900000000000000000000000000057
:04000005000000C532
:00000001FF
